:100000000C9434000C9451000C9451000C94510049
:100010000C9451000C9451000C9451000C9451001C
:100020000C9451000C9451000C9451000C9451000C
:100030000C9451000C9451000C9451000C945100FC
:100040000C9451000C9451000C9451000C945100EC
:100050000C9451000C9451000C9451000C945100DC
:100060000C9451000C94510011241FBECFEFD8E026
:10007000DEBFCDBF11E0A0E0B1E0EEEEF1E002C0E6
:1000800005900D92A230B107D9F721E0A2E0B1E0CE
:1000900001C01D92A430B207E1F70E949E000C94AB
:1000A000F5000C94000086B1817008950F931F93A2
:1000B000CF93DF938C01EB01FC011082809103014F
:1000C00088830E9453009091030189130AC09923E9
:1000D00021F082E0809300011EC082E08093000145
:1000E0001AC090910001915090930001911113C09A
:1000F0008093030181E0F80180838091030188836C
:1001000080910301882321F082E08093000103C0E5
:1001100082E080930001DF91CF911F910F910895AC
:1001200090910201981731F080930201811104C06F
:1001300081E0089580E0089580E00895CF93DF93F3
:1001400000D0CDB7DEB787B18E7F87B988B1816027
:1001500088B98FEF84B981E885B911E0BE016E5F7F
:100160007F4FCE0101960E9456008A810E94900026
:10017000882369F081E0111180E015B8111104C0E5
:1001800091E895B9182F03C091E095B9182F112364
:10019000C9F085B1883119F481E885B909C085B104
:1001A0008F70982F990F85B1807F8695892B85B99F
:1001B0002FEF81EE94E0215080409040E1F700C0A5
:1001C0000000CCCF85B1803819F481E085B903C037
:1001D00085B1880F85B92FEF81EE94E021508040E2
:0E01E0009040E1F700C00000B9CFF894FFCFC7
:0201EE0002000D
:00000001FF
